{
  "_format": "hh-sol-artifact-1",
  "contractName": "RealEstate",
  "sourceName": "contracts/RealEstate.sol",
  "abi": [
    {
      "inputs": [],
      "stateMutability": "nonpayable",
      "type": "constructor"
    },
    {
      "anonymous": false,
      "inputs": [
        {
          "indexed": true,
          "internalType": "address",
          "name": "owner",
          "type": "address"
        },
        {
          "indexed": true,
          "internalType": "address",
          "name": "approved",
          "type": "address"
        },
        {
          "indexed": true,
          "internalType": "uint256",
          "name": "tokenId",
          "type": "uint256"
        }
      ],
      "name": "Approval",
      "type": "event"
    },
    {
      "anonymous": false,
      "inputs": [
        {
          "indexed": true,
          "internalType": "address",
          "name": "owner",
          "type": "address"
        },
        {
          "indexed": true,
          "internalType": "address",
          "name": "operator",
          "type": "address"
        },
        {
          "indexed": false,
          "internalType": "bool",
          "name": "approved",
          "type": "bool"
        }
      ],
      "name": "ApprovalForAll",
      "type": "event"
    },
    {
      "anonymous": false,
      "inputs": [
        {
          "indexed": false,
          "internalType": "uint256",
          "name": "_fromTokenId",
          "type": "uint256"
        },
        {
          "indexed": false,
          "internalType": "uint256",
          "name": "_toTokenId",
          "type": "uint256"
        }
      ],
      "name": "BatchMetadataUpdate",
      "type": "event"
    },
    {
      "anonymous": false,
      "inputs": [
        {
          "indexed": false,
          "internalType": "uint256",
          "name": "_tokenId",
          "type": "uint256"
        }
      ],
      "name": "MetadataUpdate",
      "type": "event"
    },
    {
      "anonymous": false,
      "inputs": [
        {
          "indexed": true,
          "internalType": "address",
          "name": "from",
          "type": "address"
        },
        {
          "indexed": true,
          "internalType": "address",
          "name": "to",
          "type": "address"
        },
        {
          "indexed": true,
          "internalType": "uint256",
          "name": "tokenId",
          "type": "uint256"
        }
      ],
      "name": "Transfer",
      "type": "event"
    },
    {
      "inputs": [
        {
          "internalType": "address",
          "name": "to",
          "type": "address"
        },
        {
          "internalType": "uint256",
          "name": "tokenId",
          "type": "uint256"
        }
      ],
      "name": "approve",
      "outputs": [],
      "stateMutability": "nonpayable",
      "type": "function"
    },
    {
      "inputs": [
        {
          "internalType": "address",
          "name": "owner",
          "type": "address"
        }
      ],
      "name": "balanceOf",
      "outputs": [
        {
          "internalType": "uint256",
          "name": "",
          "type": "uint256"
        }
      ],
      "stateMutability": "view",
      "type": "function"
    },
    {
      "inputs": [
        {
          "internalType": "uint256",
          "name": "tokenId",
          "type": "uint256"
        }
      ],
      "name": "getApproved",
      "outputs": [
        {
          "internalType": "address",
          "name": "",
          "type": "address"
        }
      ],
      "stateMutability": "view",
      "type": "function"
    },
    {
      "inputs": [
        {
          "internalType": "address",
          "name": "owner",
          "type": "address"
        },
        {
          "internalType": "address",
          "name": "operator",
          "type": "address"
        }
      ],
      "name": "isApprovedForAll",
      "outputs": [
        {
          "internalType": "bool",
          "name": "",
          "type": "bool"
        }
      ],
      "stateMutability": "view",
      "type": "function"
    },
    {
      "inputs": [
        {
          "internalType": "string",
          "name": "tokenURI",
          "type": "string"
        }
      ],
      "name": "mint",
      "outputs": [
        {
          "internalType": "uint256",
          "name": "",
          "type": "uint256"
        }
      ],
      "stateMutability": "nonpayable",
      "type": "function"
    },
    {
      "inputs": [],
      "name": "name",
      "outputs": [
        {
          "internalType": "string",
          "name": "",
          "type": "string"
        }
      ],
      "stateMutability": "view",
      "type": "function"
    },
    {
      "inputs": [
        {
          "internalType": "uint256",
          "name": "tokenId",
          "type": "uint256"
        }
      ],
      "name": "ownerOf",
      "outputs": [
        {
          "internalType": "address",
          "name": "",
          "type": "address"
        }
      ],
      "stateMutability": "view",
      "type": "function"
    },
    {
      "inputs": [
        {
          "internalType": "address",
          "name": "from",
          "type": "address"
        },
        {
          "internalType": "address",
          "name": "to",
          "type": "address"
        },
        {
          "internalType": "uint256",
          "name": "tokenId",
          "type": "uint256"
        }
      ],
      "name": "safeTransferFrom",
      "outputs": [],
      "stateMutability": "nonpayable",
      "type": "function"
    },
    {
      "inputs": [
        {
          "internalType": "address",
          "name": "from",
          "type": "address"
        },
        {
          "internalType": "address",
          "name": "to",
          "type": "address"
        },
        {
          "internalType": "uint256",
          "name": "tokenId",
          "type": "uint256"
        },
        {
          "internalType": "bytes",
          "name": "data",
          "type": "bytes"
        }
      ],
      "name": "safeTransferFrom",
      "outputs": [],
      "stateMutability": "nonpayable",
      "type": "function"
    },
    {
      "inputs": [
        {
          "internalType": "address",
          "name": "operator",
          "type": "address"
        },
        {
          "internalType": "bool",
          "name": "approved",
          "type": "bool"
        }
      ],
      "name": "setApprovalForAll",
      "outputs": [],
      "stateMutability": "nonpayable",
      "type": "function"
    },
    {
      "inputs": [
        {
          "internalType": "bytes4",
          "name": "interfaceId",
          "type": "bytes4"
        }
      ],
      "name": "supportsInterface",
      "outputs": [
        {
          "internalType": "bool",
          "name": "",
          "type": "bool"
        }
      ],
      "stateMutability": "view",
      "type": "function"
    },
    {
      "inputs": [],
      "name": "symbol",
      "outputs": [
        {
          "internalType": "string",
          "name": "",
          "type": "string"
        }
      ],
      "stateMutability": "view",
      "type": "function"
    },
    {
      "inputs": [
        {
          "internalType": "uint256",
          "name": "tokenId",
          "type": "uint256"
        }
      ],
      "name": "tokenURI",
      "outputs": [
        {
          "internalType": "string",
          "name": "",
          "type": "string"
        }
      ],
      "stateMutability": "view",
      "type": "function"
    },
    {
      "inputs": [],
      "name": "totalSupply",
      "outputs": [
        {
          "internalType": "uint256",
          "name": "",
          "type": "uint256"
        }
      ],
      "stateMutability": "view",
      "type": "function"
    },
    {
      "inputs": [
        {
          "internalType": "address",
          "name": "from",
          "type": "address"
        },
        {
          "internalType": "address",
          "name": "to",
          "type": "address"
        },
        {
          "internalType": "uint256",
          "name": "tokenId",
          "type": "uint256"
        }
      ],
      "name": "transferFrom",
      "outputs": [],
      "stateMutability": "nonpayable",
      "type": "function"
    }
  ],
  "bytecode": "0x60806040523480156200001157600080fd5b506040518060400160405280600b81526020017f5265616c204573746174650000000000000000000000000000000000000000008152506040518060400160405280600481526020017f5245414c00000000000000000000000000000000000000000000000000000000815250816000908051906020019062000096929190620000b8565b508060019080519060200190620000af929190620000b8565b505050620001cd565b828054620000c69062000168565b90600052602060002090601f016020900481019282620000ea576000855562000136565b82601f106200010557805160ff191683800117855562000136565b8280016001018555821562000136579182015b828111156200013557825182559160200191906001019062000118565b5b50905062000145919062000149565b5090565b5b80821115620001645760008160009055506001016200014a565b5090565b600060028204905060018216806200018157607f821691505b602082108114156200019857620001976200019e565b5b50919050565b7f4e487b7100000000000000000000000000000000000000000000000000000000600052602260045260246000fd5b612a0a80620001dd6000396000f3fe608060405234801561001057600080fd5b50600436106100f55760003560e01c80636352211e11610097578063b88d4fde11610066578063b88d4fde14610284578063c87b56dd146102a0578063d85d3d27146102d0578063e985e9c514610300576100f5565b80636352211e146101ea57806370a082311461021a57806395d89b411461024a578063a22cb46514610268576100f5565b8063095ea7b3116100d3578063095ea7b31461017857806318160ddd1461019457806323b872dd146101b257806342842e0e146101ce576100f5565b806301ffc9a7146100fa57806306fdde031461012a578063081812fc14610148575b600080fd5b610114600480360381019061010f9190611e77565b610330565b6040516101219190612232565b60405180910390f35b610132610391565b60405161013f919061224d565b60405180910390f35b610162600480360381019061015d9190611f0a565b610423565b60405161016f91906121cb565b60405180910390f35b610192600480360381019061018d9190611e3b565b610469565b005b61019c610581565b6040516101a991906123ef565b60405180910390f35b6101cc60048036038101906101c79190611d35565b610592565b005b6101e860048036038101906101e39190611d35565b6105f2565b005b61020460048036038101906101ff9190611f0a565b610612565b60405161021191906121cb565b60405180910390f35b610234600480360381019061022f9190611cd0565b610699565b60405161024191906123ef565b60405180910390f35b610252610751565b60405161025f919061224d565b60405180910390f35b610282600480360381019061027d9190611dff565b6107e3565b005b61029e60048036038101906102999190611d84565b6107f9565b005b6102ba60048036038101906102b59190611f0a565b61085b565b6040516102c7919061224d565b60405180910390f35b6102ea60048036038101906102e59190611ec9565b61096e565b6040516102f791906123ef565b60405180910390f35b61031a60048036038101906103159190611cf9565b6109a5565b6040516103279190612232565b60405180910390f35b6000634906490660e01b7bffffffffffffffffffffffffffffffffffffffffffffffffffffffff1916827bffffffffffffffffffffffffffffffffffffffffffffffffffffffff1916148061038a575061038982610a39565b5b9050919050565b6060600080546103a09061258a565b80601f01602080910402602001604051908101604052809291908181526020018280546103cc9061258a565b80156104195780601f106103ee57610100808354040283529160200191610419565b820191906000526020600020905b8154815290600101906020018083116103fc57829003601f168201915b5050505050905090565b600061042e82610b1b565b6004600083815260200190815260200160002060009054906101000a900473ffffffffffffffffffffffffffffffffffffffff169050919050565b600061047482610612565b90508073ffffffffffffffffffffffffffffffffffffffff168373ffffffffffffffffffffffffffffffffffffffff1614156104e5576040517f08c379a00000000000000000000000000000000000000000000000000000000081526004016104dc906123af565b60405180910390fd5b8073ffffffffffffffffffffffffffffffffffffffff16610504610b66565b73ffffffffffffffffffffffffffffffffffffffff16148061053357506105328161052d610b66565b6109a5565b5b610572576040517f08c379a0000000000000000000000000000000000000000000000000000000008152600401610569906123cf565b60405180910390fd5b61057c8383610b6e565b505050565b600061058d6007610c27565b905090565b6105a361059d610b66565b82610c35565b6105e2576040517f08c379a00000000000000000000000000000000000000000000000000000000081526004016105d99061226f565b60405180910390fd5b6105ed838383610cca565b505050565b61060d838383604051806020016040528060008152506107f9565b505050565b60008061061e83610fc4565b9050600073ffffffffffffffffffffffffffffffffffffffff168173ffffffffffffffffffffffffffffffffffffffff161415610690576040517f08c379a00000000000000000000000000000000000000000000000000000000081526004016106879061238f565b60405180910390fd5b80915050919050565b60008073ffffffffffffffffffffffffffffffffffffffff168273ffffffffffffffffffffffffffffffffffffffff16141561070a576040517f08c379a00000000000000000000000000000000000000000000000000000000081526004016107019061232f565b60405180910390fd5b600360008373ffffffffffffffffffffffffffffffffffffffff1673ffffffffffffffffffffffffffffffffffffffff168152602001908152602001600020549050919050565b6060600180546107609061258a565b80601f016020809104026020016040519081016040528092919081815260200182805461078c9061258a565b80156107d95780601f106107ae576101008083540402835291602001916107d9565b820191906000526020600020905b8154815290600101906020018083116107bc57829003601f168201915b5050505050905090565b6107f56107ee610b66565b8383611001565b5050565b61080a610804610b66565b83610c35565b610849576040517f08c379a00000000000000000000000000000000000000000000000000000000081526004016108409061226f565b60405180910390fd5b6108558484848461116e565b50505050565b606061086682610b1b565b60006006600084815260200190815260200160002080546108869061258a565b80601f01602080910402602001604051908101604052809291908181526020018280546108b29061258a565b80156108ff5780601f106108d4576101008083540402835291602001916108ff565b820191906000526020600020905b8154815290600101906020018083116108e257829003601f168201915b5050505050905060006109106111ca565b9050600081511415610926578192505050610969565b60008251111561095b5780826040516020016109439291906121a7565b60405160208183030381529060405292505050610969565b610964846111e1565b925050505b919050565b600061097a6007611249565b60006109866007610c27565b9050610992338261125f565b61099c818461147d565b80915050919050565b6000600560008473ffffffffffffffffffffffffffffffffffffffff1673ffffffffffffffffffffffffffffffffffffffff16815260200190815260200160002060008373ffffffffffffffffffffffffffffffffffffffff1673ffffffffffffffffffffffffffffffffffffffff16815260200190815260200160002060009054906101000a900460ff16905092915050565b60007f80ac58cd000000000000000000000000000000000000000000000000000000007bffffffffffffffffffffffffffffffffffffffffffffffffffffffff1916827bffffffffffffffffffffffffffffffffffffffffffffffffffffffff19161480610b0457507f5b5e139f000000000000000000000000000000000000000000000000000000007bffffffffffffffffffffffffffffffffffffffffffffffffffffffff1916827bffffffffffffffffffffffffffffffffffffffffffffffffffffffff1916145b80610b145750610b1382611528565b5b9050919050565b610b2481611592565b610b63576040517f08c379a0000000000000000000000000000000000000000000000000000000008152600401610b5a9061238f565b60405180910390fd5b50565b600033905090565b816004600083815260200190815260200160002060006101000a81548173ffffffffffffffffffffffffffffffffffffffff021916908373ffffffffffffffffffffffffffffffffffffffff160217905550808273ffffffffffffffffffffffffffffffffffffffff16610be183610612565b73ffffffffffffffffffffffffffffffffffffffff167f8c5be1e5ebec7d5bd14f71427d1e84f3dd0314c0f7b2291e5b200ac8c7c3b92560405160405180910390a45050565b600081600001549050919050565b600080610c4183610612565b90508073ffffffffffffffffffffffffffffffffffffffff168473ffffffffffffffffffffffffffffffffffffffff161480610c835750610c8281856109a5565b5b80610cc157508373ffffffffffffffffffffffffffffffffffffffff16610ca984610423565b73ffffffffffffffffffffffffffffffffffffffff16145b91505092915050565b8273ffffffffffffffffffffffffffffffffffffffff16610cea82610612565b73ffffffffffffffffffffffffffffffffffffffff1614610d40576040517f08c379a0000000000000000000000000000000000000000000000000000000008152600401610d37906122af565b60405180910390fd5b600073ffffffffffffffffffffffffffffffffffffffff168273ffffffffffffffffffffffffffffffffffffffff161415610db0576040517f08c379a0000000000000000000000000000000000000000000000000000000008152600401610da7906122ef565b60405180910390fd5b610dbd83838360016115d3565b8273ffffffffffffffffffffffffffffffffffffffff16610ddd82610612565b73ffffffffffffffffffffffffffffffffffffffff1614610e33576040517f08c379a0000000000000000000000000000000000000000000000000000000008152600401610e2a906122af565b60405180910390fd5b6004600082815260200190815260200160002060006101000a81549073ffffffffffffffffffffffffffffffffffffffff02191690556001600360008573ffffffffffffffffffffffffffffffffffffffff1673ffffffffffffffffffffffffffffffffffffffff168152602001908152602001600020600082825403925050819055506001600360008473ffffffffffffffffffffffffffffffffffffffff1673ffffffffffffffffffffffffffffffffffffffff16815260200190815260200160002060008282540192505081905550816002600083815260200190815260200160002060006101000a81548173ffffffffffffffffffffffffffffffffffffffff021916908373ffffffffffffffffffffffffffffffffffffffff160217905550808273ffffffffffffffffffffffffffffffffffffffff168473ffffffffffffffffffffffffffffffffffffffff167fddf252ad1be2c89b69c2b068fc378daa952ba7f163c4a11628f55a4df523b3ef60405160405180910390a4610fbf83838360016115d9565b505050565b60006002600083815260200190815260200160002060009054906101000a900473ffffffffffffffffffffffffffffffffffffffff169050919050565b8173ffffffffffffffffffffffffffffffffffffffff168373ffffffffffffffffffffffffffffffffffffffff161415611070576040517f08c379a00000000000000000000000000000000000000000000000000000000081526004016110679061230f565b60405180910390fd5b80600560008573ffffffffffffffffffffffffffffffffffffffff1673ffffffffffffffffffffffffffffffffffffffff16815260200190815260200160002060008473ffffffffffffffffffffffffffffffffffffffff1673ffffffffffffffffffffffffffffffffffffffff16815260200190815260200160002060006101000a81548160ff0219169083151502179055508173ffffffffffffffffffffffffffffffffffffffff168373ffffffffffffffffffffffffffffffffffffffff167f17307eab39ab6107e8899845ad3d59bd9653f200f220920489ca2b5937696c31836040516111619190612232565b60405180910390a3505050565b611179848484610cca565b611185848484846115df565b6111c4576040517f08c379a00000000000000000000000000000000000000000000000000000000081526004016111bb9061228f565b60405180910390fd5b50505050565b606060405180602001604052806000815250905090565b60606111ec82610b1b565b60006111f66111ca565b905060008151116112165760405180602001604052806000815250611241565b8061122084611776565b6040516020016112319291906121a7565b6040516020818303038152906040525b915050919050565b6001816000016000828254019250508190555050565b600073ffffffffffffffffffffffffffffffffffffffff168273ffffffffffffffffffffffffffffffffffffffff1614156112cf576040517f08c379a00000000000000000000000000000000000000000000000000000000081526004016112c69061236f565b60405180910390fd5b6112d881611592565b15611318576040517f08c379a000000000000000000000000000000000000000000000000000000000815260040161130f906122cf565b60405180910390fd5b6113266000838360016115d3565b61132f81611592565b1561136f576040517f08c379a0000000000000000000000000000000000000000000000000000000008152600401611366906122cf565b60405180910390fd5b6001600360008473ffffffffffffffffffffffffffffffffffffffff1673ffffffffffffffffffffffffffffffffffffffff16815260200190815260200160002060008282540192505081905550816002600083815260200190815260200160002060006101000a81548173ffffffffffffffffffffffffffffffffffffffff021916908373ffffffffffffffffffffffffffffffffffffffff160217905550808273ffffffffffffffffffffffffffffffffffffffff16600073ffffffffffffffffffffffffffffffffffffffff167fddf252ad1be2c89b69c2b068fc378daa952ba7f163c4a11628f55a4df523b3ef60405160405180910390a46114796000838360016115d9565b5050565b61148682611592565b6114c5576040517f08c379a00000000000000000000000000000000000000000000000000000000081526004016114bc9061234f565b60405180910390fd5b806006600084815260200190815260200160002090805190602001906114ec929190611af4565b507ff8e1a15aba9398e019f0b49df1a4fde98ee17ae345cb5f6b5e2c27f5033e8ce78260405161151c91906123ef565b60405180910390a15050565b60007f01ffc9a7000000000000000000000000000000000000000000000000000000007bffffffffffffffffffffffffffffffffffffffffffffffffffffffff1916827bffffffffffffffffffffffffffffffffffffffffffffffffffffffff1916149050919050565b60008073ffffffffffffffffffffffffffffffffffffffff166115b483610fc4565b73ffffffffffffffffffffffffffffffffffffffff1614159050919050565b50505050565b50505050565b60006116008473ffffffffffffffffffffffffffffffffffffffff1661189a565b15611769578373ffffffffffffffffffffffffffffffffffffffff1663150b7a02611629610b66565b8786866040518563ffffffff1660e01b815260040161164b94939291906121e6565b602060405180830381600087803b15801561166557600080fd5b505af192505050801561169657506040513d601f19601f820116820180604052508101906116939190611ea0565b60015b611719573d80600081146116c6576040519150601f19603f3d011682016040523d82523d6000602084013e6116cb565b606091505b50600081511415611711576040517f08c379a00000000000000000000000000000000000000000000000000000000081526004016117089061228f565b60405180910390fd5b805181602001fd5b63150b7a0260e01b7bffffffffffffffffffffffffffffffffffffffffffffffffffffffff1916817bffffffffffffffffffffffffffffffffffffffffffffffffffffffff19161491505061176e565b600190505b949350505050565b606060006001611785846118bd565b01905060008167ffffffffffffffff8111156117ca577f4e487b7100000000000000000000000000000000000000000000000000000000600052604160045260246000fd5b6040519080825280601f01601f1916602001820160405280156117fc5781602001600182028036833780820191505090505b509050600082602001820190505b60011561188f578080600190039150507f3031323334353637383961626364656600000000000000000000000000000000600a86061a8153600a8581611879577f4e487b7100000000000000000000000000000000000000000000000000000000600052601260045260246000fd5b049450600085141561188a5761188f565b61180a565b819350505050919050565b6000808273ffffffffffffffffffffffffffffffffffffffff163b119050919050565b600080600090507a184f03e93ff9f4daa797ed6e38ed64bf6a1f0100000000000000008310611941577a184f03e93ff9f4daa797ed6e38ed64bf6a1f0100000000000000008381611937577f4e487b7100000000000000000000000000000000000000000000000000000000600052601260045260246000fd5b0492506040810190505b6d04ee2d6d415b85acef810000000083106119a4576d04ee2d6d415b85acef8100000000838161199a577f4e487b7100000000000000000000000000000000000000000000000000000000600052601260045260246000fd5b0492506020810190505b662386f26fc1000083106119f957662386f26fc1000083816119ef577f4e487b7100000000000000000000000000000000000000000000000000000000600052601260045260246000fd5b0492506010810190505b6305f5e1008310611a48576305f5e1008381611a3e577f4e487b7100000000000000000000000000000000000000000000000000000000600052601260045260246000fd5b0492506008810190505b6127108310611a93576127108381611a89577f4e487b7100000000000000000000000000000000000000000000000000000000600052601260045260246000fd5b0492506004810190505b60648310611adc5760648381611ad2577f4e487b7100000000000000000000000000000000000000000000000000000000600052601260045260246000fd5b0492506002810190505b600a8310611aeb576001810190505b80915050919050565b828054611b009061258a565b90600052602060002090601f016020900481019282611b225760008555611b69565b82601f10611b3b57805160ff1916838001178555611b69565b82800160010185558215611b69579182015b82811115611b68578251825591602001919060010190611b4d565b5b509050611b769190611b7a565b5090565b5b80821115611b93576000816000905550600101611b7b565b5090565b6000611baa611ba58461242f565b61240a565b905082815260208101848484011115611bc257600080fd5b611bcd848285612548565b509392505050565b6000611be8611be384612460565b61240a565b905082815260208101848484011115611c0057600080fd5b611c0b848285612548565b509392505050565b600081359050611c2281612978565b92915050565b600081359050611c378161298f565b92915050565b600081359050611c4c816129a6565b92915050565b600081519050611c61816129a6565b92915050565b600082601f830112611c7857600080fd5b8135611c88848260208601611b97565b91505092915050565b600082601f830112611ca257600080fd5b8135611cb2848260208601611bd5565b91505092915050565b600081359050611cca816129bd565b92915050565b600060208284031215611ce257600080fd5b6000611cf084828501611c13565b91505092915050565b60008060408385031215611d0c57600080fd5b6000611d1a85828601611c13565b9250506020611d2b85828601611c13565b9150509250929050565b600080600060608486031215611d4a57600080fd5b6000611d5886828701611c13565b9350506020611d6986828701611c13565b9250506040611d7a86828701611cbb565b9150509250925092565b60008060008060808587031215611d9a57600080fd5b6000611da887828801611c13565b9450506020611db987828801611c13565b9350506040611dca87828801611cbb565b925050606085013567ffffffffffffffff811115611de757600080fd5b611df387828801611c67565b91505092959194509250565b60008060408385031215611e1257600080fd5b6000611e2085828601611c13565b9250506020611e3185828601611c28565b9150509250929050565b60008060408385031215611e4e57600080fd5b6000611e5c85828601611c13565b9250506020611e6d85828601611cbb565b9150509250929050565b600060208284031215611e8957600080fd5b6000611e9784828501611c3d565b91505092915050565b600060208284031215611eb257600080fd5b6000611ec084828501611c52565b91505092915050565b600060208284031215611edb57600080fd5b600082013567ffffffffffffffff811115611ef557600080fd5b611f0184828501611c91565b91505092915050565b600060208284031215611f1c57600080fd5b6000611f2a84828501611cbb565b91505092915050565b611f3c816124d4565b82525050565b611f4b816124e6565b82525050565b6000611f5c82612491565b611f6681856124a7565b9350611f76818560208601612557565b611f7f8161264b565b840191505092915050565b6000611f958261249c565b611f9f81856124b8565b9350611faf818560208601612557565b611fb88161264b565b840191505092915050565b6000611fce8261249c565b611fd881856124c9565b9350611fe8818560208601612557565b80840191505092915050565b6000612001602d836124b8565b915061200c8261265c565b604082019050919050565b60006120246032836124b8565b915061202f826126ab565b604082019050919050565b60006120476025836124b8565b9150612052826126fa565b604082019050919050565b600061206a601c836124b8565b915061207582612749565b602082019050919050565b600061208d6024836124b8565b915061209882612772565b604082019050919050565b60006120b06019836124b8565b91506120bb826127c1565b602082019050919050565b60006120d36029836124b8565b91506120de826127ea565b604082019050919050565b60006120f6602e836124b8565b915061210182612839565b604082019050919050565b60006121196020836124b8565b915061212482612888565b602082019050919050565b600061213c6018836124b8565b9150612147826128b1565b602082019050919050565b600061215f6021836124b8565b915061216a826128da565b604082019050919050565b6000612182603d836124b8565b915061218d82612929565b604082019050919050565b6121a18161253e565b82525050565b60006121b38285611fc3565b91506121bf8284611fc3565b91508190509392505050565b60006020820190506121e06000830184611f33565b92915050565b60006080820190506121fb6000830187611f33565b6122086020830186611f33565b6122156040830185612198565b81810360608301526122278184611f51565b905095945050505050565b60006020820190506122476000830184611f42565b92915050565b600060208201905081810360008301526122678184611f8a565b905092915050565b6000602082019050818103600083015261228881611ff4565b9050919050565b600060208201905081810360008301526122a881612017565b9050919050565b600060208201905081810360008301526122c88161203a565b9050919050565b600060208201905081810360008301526122e88161205d565b9050919050565b6000602082019050818103600083015261230881612080565b9050919050565b60006020820190508181036000830152612328816120a3565b9050919050565b60006020820190508181036000830152612348816120c6565b9050919050565b60006020820190508181036000830152612368816120e9565b9050919050565b600060208201905081810360008301526123888161210c565b9050919050565b600060208201905081810360008301526123a88161212f565b9050919050565b600060208201905081810360008301526123c881612152565b9050919050565b600060208201905081810360008301526123e881612175565b9050919050565b60006020820190506124046000830184612198565b92915050565b6000612414612425565b905061242082826125bc565b919050565b6000604051905090565b600067ffffffffffffffff82111561244a5761244961261c565b5b6124538261264b565b9050602081019050919050565b600067ffffffffffffffff82111561247b5761247a61261c565b5b6124848261264b565b9050602081019050919050565b600081519050919050565b600081519050919050565b600082825260208201905092915050565b600082825260208201905092915050565b600081905092915050565b60006124df8261251e565b9050919050565b60008115159050919050565b60007fffffffff0000000000000000000000000000000000000000000000000000000082169050919050565b600073ffffffffffffffffffffffffffffffffffffffff82169050919050565b6000819050919050565b82818337600083830152505050565b60005b8381101561257557808201518184015260208101905061255a565b83811115612584576000848401525b50505050565b600060028204905060018216806125a257607f821691505b602082108114156125b6576125b56125ed565b5b50919050565b6125c58261264b565b810181811067ffffffffffffffff821117156125e4576125e361261c565b5b80604052505050565b7f4e487b7100000000000000000000000000000000000000000000000000000000600052602260045260246000fd5b7f4e487b7100000000000000000000000000000000000000000000000000000000600052604160045260246000fd5b6000601f19601f8301169050919050565b7f4552433732313a2063616c6c6572206973206e6f7420746f6b656e206f776e6560008201527f72206f7220617070726f76656400000000000000000000000000000000000000602082015250565b7f4552433732313a207472616e7366657220746f206e6f6e20455243373231526560008201527f63656976657220696d706c656d656e7465720000000000000000000000000000602082015250565b7f4552433732313a207472616e736665722066726f6d20696e636f72726563742060008201527f6f776e6572000000000000000000000000000000000000000000000000000000602082015250565b7f4552433732313a20746f6b656e20616c7265616479206d696e74656400000000600082015250565b7f4552433732313a207472616e7366657220746f20746865207a65726f2061646460008201527f7265737300000000000000000000000000000000000000000000000000000000602082015250565b7f4552433732313a20617070726f766520746f2063616c6c657200000000000000600082015250565b7f4552433732313a2061646472657373207a65726f206973206e6f74206120766160008201527f6c6964206f776e65720000000000000000000000000000000000000000000000602082015250565b7f45524337323155524953746f726167653a2055524920736574206f66206e6f6e60008201527f6578697374656e7420746f6b656e000000000000000000000000000000000000602082015250565b7f4552433732313a206d696e7420746f20746865207a65726f2061646472657373600082015250565b7f4552433732313a20696e76616c696420746f6b656e2049440000000000000000600082015250565b7f4552433732313a20617070726f76616c20746f2063757272656e74206f776e6560008201527f7200000000000000000000000000000000000000000000000000000000000000602082015250565b7f4552433732313a20617070726f76652063616c6c6572206973206e6f7420746f60008201527f6b656e206f776e6572206f7220617070726f76656420666f7220616c6c000000602082015250565b612981816124d4565b811461298c57600080fd5b50565b612998816124e6565b81146129a357600080fd5b50565b6129af816124f2565b81146129ba57600080fd5b50565b6129c68161253e565b81146129d157600080fd5b5056fea26469706673582212204a5bc2aacf1519c58f3a2fa5095e6cd4fe3764ffdacbe4d19f448f780455cf6564736f6c63430008040033",
  "linkReferences": {},
  "deployedLinkReferences": {}
}